{
  "contractName": "Poll",
  "abi": [
    {
      "anonymous": false,
      "inputs": [
        {
          "components": [
            {
              "internalType": "string",
              "name": "name",
              "type": "string"
            },
            {
              "internalType": "uint256",
              "name": "votes",
              "type": "uint256"
            }
          ],
          "indexed": false,
          "internalType": "struct Poll.Candidate[]",
          "name": "",
          "type": "tuple[]"
        }
      ],
      "name": "EndPoll",
      "type": "event"
    },
    {
      "inputs": [
        {
          "internalType": "string",
          "name": "_candidate",
          "type": "string"
        }
      ],
      "name": "vote",
      "outputs": [],
      "stateMutability": "nonpayable",
      "type": "function"
    },
    {
      "inputs": [],
      "name": "finishPoll",
      "outputs": [],
      "stateMutability": "nonpayable",
      "type": "function"
    },
    {
      "inputs": [
        {
          "internalType": "string[]",
          "name": "_candidates",
          "type": "string[]"
        }
      ],
      "name": "startPoll",
      "outputs": [],
      "stateMutability": "nonpayable",
      "type": "function"
    }
  ],
  "bytecode": "0x6080604052336000806101000a81548173ffffffffffffffffffffffffffffffffffffffff021916908373ffffffffffffffffffffffffffffffffffffffff16021790555060008060146101000a81548160ff02191690831515021790555034801561006a57600080fd5b50610d8f8061007a6000396000f3fe608060405234801561001057600080fd5b50600436106100415760003560e01c80634e6ead2d14610046578063f7bb7a3214610062578063fc36e15b1461006c575b600080fd5b610060600480360381019061005b9190610768565b610088565b005b61006a6101d8565b005b610086600480360381019061008191906107b1565b6102c8565b005b60008054906101000a900473ffffffffffffffffffffffffffffffffffffffff1673ffffffffffffffffffffffffffffffffffffffff163373ffffffffffffffffffffffffffffffffffffffff1614610116576040517f08c379a000000000000000000000000000000000000000000000000000000000815260040161010d9061087d565b60405180910390fd5b60005b81518110156101b957600160405180604001604052808484815181106101425761014161089d565b5b602002602001015181526020016000815250908060018154018082558091505060019003906000526020600020906002020160009091909190915060008201518160000190805190602001906101999291906103f2565b5060208201518160010155505080806101b190610905565b915050610119565b506001600060146101000a81548160ff02191690831515021790555050565b60008054906101000a900473ffffffffffffffffffffffffffffffffffffffff1673ffffffffffffffffffffffffffffffffffffffff163373ffffffffffffffffffffffffffffffffffffffff1614610266576040517f08c379a000000000000000000000000000000000000000000000000000000000815260040161025d9061087d565b60405180910390fd5b7f5de13590f01d5a2e703dbfad3d343024552451da2009d3105710ec2d50e40d3b60016040516102969190610ba4565b60405180910390a1600160006102ac9190610478565b60008060146101000a81548160ff021916908315150217905550565b600060149054906101000a900460ff16610317576040517f08c379a000000000000000000000000000000000000000000000000000000000815260040161030e90610c12565b60405180910390fd5b60005b6001805490508110156103ee57816040516020016103389190610cac565b60405160208183030381529060405280519060200120600182815481106103625761036161089d565b5b90600052602060002090600202016000016040516020016103839190610d42565b6040516020818303038152906040528051906020012014156103db57600181815481106103b3576103b261089d565b5b906000526020600020906002020160010160008154809291906103d590610905565b91905055505b80806103e690610905565b91505061031a565b5050565b8280546103fe906109ae565b90600052602060002090601f0160209004810192826104205760008555610467565b82601f1061043957805160ff1916838001178555610467565b82800160010185558215610467579182015b8281111561046657825182559160200191906001019061044b565b5b509050610474919061049c565b5090565b508054600082556002029060005260206000209081019061049991906104b9565b50565b5b808211156104b557600081600090555060010161049d565b5090565b5b808211156104e457600080820160006104d391906104e8565b6001820160009055506002016104ba565b5090565b5080546104f4906109ae565b6000825580601f106105065750610525565b601f016020900490600052602060002090810190610524919061049c565b5b50565b6000604051905090565b600080fd5b600080fd5b600080fd5b6000601f19601f8301169050919050565b7f4e487b7100000000000000000000000000000000000000000000000000000000600052604160045260246000fd5b61058a82610541565b810181811067ffffffffffffffff821117156105a9576105a8610552565b5b80604052505050565b60006105bc610528565b90506105c88282610581565b919050565b600067ffffffffffffffff8211156105e8576105e7610552565b5b602082029050602081019050919050565b600080fd5b600080fd5b600067ffffffffffffffff82111561061e5761061d610552565b5b61062782610541565b9050602081019050919050565b82818337600083830152505050565b600061065661065184610603565b6105b2565b905082815260208101848484011115610672576106716105fe565b5b61067d848285610634565b509392505050565b600082601f83011261069a5761069961053c565b5b81356106aa848260208601610643565b91505092915050565b60006106c66106c1846105cd565b6105b2565b905080838252602082019050602084028301858111156106e9576106e86105f9565b5b835b8181101561073057803567ffffffffffffffff81111561070e5761070d61053c565b5b80860161071b8982610685565b855260208501945050506020810190506106eb565b5050509392505050565b600082601f83011261074f5761074e61053c565b5b813561075f8482602086016106b3565b91505092915050565b60006020828403121561077e5761077d610532565b5b600082013567ffffffffffffffff81111561079c5761079b610537565b5b6107a88482850161073a565b91505092915050565b6000602082840312156107c7576107c6610532565b5b600082013567ffffffffffffffff8111156107e5576107e4610537565b5b6107f184828501610685565b91505092915050565b600082825260208201905092915050565b7f546869732066756e6374696f6e206973207265737472696374656420746f207460008201527f686520636f6e74726163742773206f776e657200000000000000000000000000602082015250565b60006108676033836107fa565b91506108728261080b565b604082019050919050565b600060208201905081810360008301526108968161085a565b9050919050565b7f4e487b7100000000000000000000000000000000000000000000000000000000600052603260045260246000fd5b7f4e487b7100000000000000000000000000000000000000000000000000000000600052601160045260246000fd5b6000819050919050565b6000610910826108fb565b91507fffffffffffffffffffffffffffffffffffffffffffffffffffffffffffffffff821415610943576109426108cc565b5b600182019050919050565b600081549050919050565b600082825260208201905092915050565b60008190508160005260206000209050919050565b7f4e487b7100000000000000000000000000000000000000000000000000000000600052602260045260246000fd5b600060028204905060018216806109c657607f821691505b602082108114156109da576109d961097f565b5b50919050565b600082825260208201905092915050565b60008190508160005260206000209050919050565b60008154610a13816109ae565b610a1d81866109e0565b94506001821660008114610a385760018114610a4a57610a7d565b60ff1983168652602086019350610a7d565b610a53856109f1565b60005b83811015610a7557815481890152600182019150602081019050610a56565b808801955050505b50505092915050565b60008160001c9050919050565b6000819050919050565b6000610ab0610aab83610a86565b610a93565b9050919050565b610ac0816108fb565b82525050565b60006040830160008084018583036000870152610ae38382610a06565b92505060018401549050610af681610a9d565b610b036020870182610ab7565b50819250505092915050565b6000610b1b8383610ac6565b905092915050565b6000600282019050919050565b6000610b3b8261094e565b610b458185610959565b935083602082028501610b578561096a565b8060005b85811015610b9257848403895281610b738582610b0f565b9450610b7e83610b23565b925060208a01995050600181019050610b5b565b50829750879550505050505092915050565b60006020820190508181036000830152610bbe8184610b30565b905092915050565b7f4e6f20706f6c6c2068617070656e696e6720617420746865206d6f6d656e7421600082015250565b6000610bfc6020836107fa565b9150610c0782610bc6565b602082019050919050565b60006020820190508181036000830152610c2b81610bef565b9050919050565b600081519050919050565b600081905092915050565b60005b83811015610c66578082015181840152602081019050610c4b565b83811115610c75576000848401525b50505050565b6000610c8682610c32565b610c908185610c3d565b9350610ca0818560208601610c48565b80840191505092915050565b6000610cb88284610c7b565b915081905092915050565b60008154610cd0816109ae565b610cda8186610c3d565b94506001821660008114610cf55760018114610d0657610d39565b60ff19831686528186019350610d39565b610d0f856109f1565b60005b83811015610d3157815481890152600182019150602081019050610d12565b838801955050505b50505092915050565b6000610d4e8284610cc3565b91508190509291505056fea2646970667358221220d6ff2ce7c26987ee2840dd7a9ddc27b001ee48eb539fb5a8cbb6070f33d6010c64736f6c634300080b0033",
  "immutableReferences": {},
  "source": "//SPDX-License-Identifier: MIT\npragma solidity >=0.8.0;\n\ncontract Poll {\n\n    event EndPoll(Candidate[]);\n\n    modifier restricted() {\n        require(msg.sender == owner, \"This function is restricted to the contract's owner\");\n        _;\n    }\n\n    struct Candidate {\n        string name;\n        uint votes;\n    }\n    address owner = msg.sender;\n    bool pollStarted = false;\n    Candidate[] candidates;\n\n    function vote(string memory _candidate) public {\n        require(pollStarted, \"No poll happening at the moment!\");\n        for (uint i=0; i<candidates.length; i++) {\n            if (keccak256(abi.encodePacked(candidates[i].name)) == keccak256(abi.encodePacked(_candidate))) {\n                candidates[i].votes++;\n            }\n        }\n    }\n\n    function finishPoll() public restricted {\n        emit EndPoll(candidates);\n        delete candidates;\n        pollStarted = false;\n    }\n\n    function startPoll(string[] memory _candidates) public restricted {\n        for (uint i=0; i<_candidates.length; i++) {\n            candidates.push(Candidate(_candidates[i], 0));\n        }\n        pollStarted = true;\n    }\n\n}",
  "sourcePath": "/home/mam15/git/poll-dapp/poll-dapp/contracts/Poll.sol",
  "compiler": {
    "name": "solc",
    "version": "0.8.11+commit.d7f03943.Emscripten.clang"
  },
  "schemaVersion": "3.4.4",
  "updatedAt": "2022-02-04T04:42:30.676Z",
  "devdoc": {
    "kind": "dev",
    "methods": {},
    "version": 1
  },
  "userdoc": {
    "kind": "user",
    "methods": {},
    "version": 1
  }
}